:100000000C94FD0E0C94440F0C94440F0C94440F6C
:100010000C94440F0C94440F0C94440F0C94440F14
:100020000C94440F0C94440F0C94B6310C94883209
:100030000C94DC230C94440F0C94440F0C94440F48
:100040000C94440F0C94440F0C94440F0C94440FE4
:100050000C94440F0C9450240C94440F0C94440FB3
:100060000C94440F0C94440F0C94440F0C94440FC4
:100070000C94440F0C94440F0C94440F0C94440FB4
:100080000C94440F0C94440F0C94440F0C94440FA4
:100090000C94440F0C94440F0C94440F0C94440F94
:1000A0000C94440F0C94440F0C94440FB710B910E7
:1000B000C410BB10BD10BF10C110C310C610C810B3
:1000C000CA10D510CC10CE10D010D210D410D7102A
:1000D000B119B119E319E319301A501AB01BB01B4A
:1000E000921A2F1B401B401BA01BB01BB01BA91B4F
:1000F000321C321C441C441C3B1C441C441C441C2D
:10010000321C321C401C441C441C401CF5321C3365
:100110000E341C330E3468338B330E34E133F0333A
:1001200029001E001F0020002100220023002400BF
:100130002500260027002D002E00310003512B0042
:1001400014001A000800150017001C0018000C000D
:10015000120013002F0030002A004C00E0000400C1
:100160001600070009000A000B000D000E000F002A
:1001700033003400350028004B00E1001D001B0057
:100180000600190005001100100036003700380085
:100190000000E50052004E000151E300E2000000C3
:1001A00000002C000000000000000351015150002D
:1001B000000051004F00010001000100010001009A
:1001C0000100010001000100010001000100010027
:1001D0000100010001000100010001000100010017
:1001E00001000100010001005200010001000100B6
:1001F00001000100010001000100AE00BC00BB00D5
:1002000044004500500051004F0001000100010072
:1002100001000100010001000100AC00AB00010081
:1002200001000100010000000100010001000100C7
:1002300001000100000000000100000000000000BB
:1002400001000100010000000100010000003A006F
:100250003B003C003D003E003F00400041004200AA
:1002600043004400450000000000010000000000C1
:10027000000000000000000000000000000000007E
:10028000000000000000000001000000000000006D
:1002900000000000000044004500000000000000D5
:1002A000000000000000010000000000000000004D
:1002B000000000000000000000000000000000003E
:1002C000000000000100010001000000000000002B
:1002D000000000000000010000000000000000001D
:1002E000000000000000000000000000000000000E
:1002F00000000000000000000000000000000100FD
:10030000000000000000DE5C005C00000000000057
:1003100000000000000000000000000000000000DD
:1003200000000000000000000000000000000000CD
:1003300000000000000000000000000000000000BD
:1003400000000000000000000000000000000000AD
:10035000000000000000000000000000000000009D
:10036000000000000000000000000000010000008C
:10037000000000000000000000000000000000007D
:10038000000000000000000000000000000000006D
:10039000000000000100000000000000000000005C
:1003A000000000000000000000000000000000004D
:1003B000000000000000000000000000000000003D
:1003C000000000000000000000000000000000002D
:1003D000000000000000000000000000000000001D
:1003E000000000000000000000000000000000000D
:1003F00000000000000000000000000000000000FD
:1004000000000000000000000000000000000100EB
:1004100001000100010001000100010001000100D4
:1004200001000100010001000100010001000100C4
:1004300001000100010001000100010001000100B4
:1004400001000100010001000100010001000100A4
:100450000100010001000100010001000100010094
:100460000100010001000100010001000100010084
:100470000100010001000100010001000100000075
:100480000100010001000100010001000000000066
:100490000100000000000000010001000100000058
:1004A0000100010001000100010001000100010044
:1004B0000100010001000100010001000100010034
:1004C0000100010001000100010001000100010024
:1004D0000100010001000100010001000100010014
:1004E0000100010001000100010001000100010004
:1004F00001000100010001000100010001000100F4
:1005000001000100010001000100010001000100E3
:1005100001000100000001000100010001000100D4
:1005200001000000000001000000000000000100C8
:1005300001000100000001000100010001000100B4
:1005400001000100010001000100010001000100A3
:100550000100010001000100010001000100010093
:100560000100010001000100010001000100010083
:100570000100010001000100010001000100010073
:100580000100010001000100010001000100010063
:100590000100010001000100010001000100010053
:1005A0000100010001000100010000000100010044
:1005B0000100010001000100000000000100000036
:1005C0000000000001000100010000000100010026
:1005D0000100010001000100010001000100010013
:1005E0000100010001000100010001000100010003
:1005F00001000100010001000100010001000100F3
:1006000001000100010001000100010001000100E2
:1006100001000100010001000100010001000100D2
:1006200001000100010001000100010001000100C2
:1006300001000100010001000100010001000100B2
:1006400000000100010001000100010001000000A4
:100650000000010000000000000001000100010096
:100660000000010001000100010001000100010083
:100670000100010001000100010001000100010072
:100680000100010001000100010001000100010062
:100690000100010001000100010001000100010052
:1006A0000100010001000100010001000100010042
:1006B0000100010001000100010001000100010032
:1006C0000100010001000100010001000100010022
:1006D0000100010001000000010001000100010013
:1006E0000100010000000000010000000000000007
:1006F00001000100010000000100010001000100F3
:1007000001000100010001000100010001000100E1
:1007100001000100010001000100010001000100D1
:1007200001000100010001000100010001000100C1
:1007300001000100010001000100010001000100B1
:1007400001000100010001000100010001000100A1
:100750000100010001000100010001000100010091
:100760000100010001000100010001000000010082
:100770000100010001000100010000000000010073
:100780000000000000000100010001000000010065
:100790000100010001000100010001000100010051
:1007A0000100010001000100010001000100010041
:1007B0000100010001000100010001000100010031
:1007C0000100010001000100010001000100010021
:1007D0000100010001000100010001000100010011
:1007E0000100010001000100010001000100010001
:1007F00001000100010001000100010001000100F1
:1008000001000000010001000100010001000100E1
:1008100000000000010000000000000001000100D5
:1008200001000000010001000100010001000100C1
:1008300001000100010001000100010001000100B0
:1008400001000100010001000100010001000100A0
:100850000100010001000100010001000100010090
:100860000100010001000100010001000100010080
:100870000100010001000100010001000100010070
:100880000100010001000100010001000100010060
:100890000100010001000100000001000100010051
:1008A0000100010001000000000001000000000044
:1008B0000000010001000100000001000100010032
:1008C0000100010001000100010001000100010020
:1008D0000100010001000100010001000100010010
:1008E0000100010001000100010001000100010000
:1008F00001000100010001000100010001000100F0
:1009000001000100010001000100010001000100DF
:1009100001000100010001000100010001000100CF
:1009200001000100010001000100010001000000C0
:1009300001000100010001000100010000000000B1
:1009400001000000000000000100010001000000A3
:10095000010001000100010001000100010001008F
:10096000010001000100010001000100010001007F
:10097000010001000100010001000100010001006F
:10098000010001000100010001000100010001005F
:10099000010001000100010001000100010001004F
:1009A000010001000100010001000100010001003F
:1009B000010001000100010001000100010001002F
:1009C0000100010000000100010001000100010020
:1009D0000100000000000100000000000000010014
:1009E0000100010000000100010001000100010000
:1009F00001000100010001000100010001000100EF
:100A000001000100010001000100010001000100DE
:100A100001000100010001000100010001000100CE
:100A200001000100010001000100010001000100BE
:100A300001000100010001000100010001000100AE
:100A4000010001000100010001000100010001009E
:100A5000010001000100010001000000010001008F
:100A60000100010001000100000000000100000081
:100A70000000000001000100010000000100010071
:100A8000010001000100010001000100010001005E
:100A9000010001000100010001000100010001004E
:100AA000010001000100010001000100010001003E
:100AB000010001000100010001000100010001002E
:100AC000010001000100010001000100010001001E
:100AD000010001000100010001000100010001000E
:100AE00001000100010001000100010001000100FE
:100AF00000000100010001000100010001000000F0
:100B000000000100000000000000010001000100E1
:100B100000000100010001000100010001000100CE
:100B200001000100010001000100010001000100BD
:100B300001000100010001000100010001000100AD
:100B4000010001000100010001000100010001009D
:100B5000010001000100010001000100010001008D
:100B6000010001000100010001000100010001007D
:100B7000010001000100010001000100010001006D
:100B8000010001000100000001000100010001005E
:100B90000100010000000000010000000000000052
:100BA000010001000100000001000100010001003E
:100BB000010001000100010001000100010001002D
:100BC000010001000100010001000100010001001D
:100BD000010001000100010001000100010001000D
:100BE00001000100010001000100010001000100FD
:100BF00001000100010001000100010001000100ED
:100C000001000100010001000100010001000100DC
:100C100001000100010001000100010000000100CD
:100C200001000100010001000100000000000100BE
:100C300000000000000001000100010000000100B0
:100C4000010001000100010001000100010001009C
:100C5000010001000100010001000100010001008C
:100C6000010001000100010001000100010001007C
:100C7000010001000100010001000100010001006C
:100C8000010001000100010001000100010001005C
:100C9000010001000100010001000100010001004C
:100CA000010001000100010001000100010001003C
:100CB000010000000100010001000100010001002D
:100CC0000000000001000000000000000100010021
:100CD000010000000100010001000100010001000D
:100CE00001000100010001000100010001000100FC
:100CF00001000100010001000100010001000100EC
:100D000001000100010001000100010001000100DB
:100D100001000100010001000100010001000100CB
:100D200001000100010001000100010001000100BB
:100D300001000100010001000100010001000100AB
:100D4000010001000100010000000100010001009C
:100D5000010001000100000000000100000000008F
:100D6000000001000100010000000100010001007D
:100D7000010001000100010001000100010001006B
:100D8000010001000100010001000100010001005B
:100D9000010001000100010001000100010001004B
:100DA000010001000100010001000100010001003B
:100DB000010001000100010001000100010001002B
:100DC000010001000100010001000100010001001B
:100DD000010001000100010001000100010000000C
:100DE00001000100010001000100010000000000FD
:100DF00001000000000000000100010001000000EF
:100E000001000100010001000100010001000100DA
:100E100001000100010001000100010001000100CA
:100E200001000100010001000100010001000100BA
:100E300001000100010001000100010001000100AA
:100E4000010001000100010001000100010001009A
:100E5000010001000100010001000100010001008A
:100E6000010001000100010001000100010001007A
:100E7000010001000000010001000100010001006B
:100E8000010000000000010000000000000001005F
:100E9000010001000000010001000100010001004B
:100EA000010001000100010001000100010001003A
:100EB000010001000100010001000100010001002A
:100EC000010001000100010001000100010001001A
:100ED000010001000100010001000100010001000A
:100EE00001000100010001000100010001000100FA
:100EF00001000100010001000100010001000100EA
:100F000001000100010001000100000001000100DA
:100F100001000100010001000000000001000000CC
:100F200000000000010001000100000001000100BC
:100F300001000100010001000100010001000100A9
:100F40000100010001000100010001000100010099
:100F50000100010001000100010001000100010089
:100F60000100010001000100010001000100010079
:100F70000100010001000100010001000100010069
:100F80000100010001000100010001000100010059
:100F90000100010001000100010001000100010049
:100FA000000001000100010001000100010000003B
:100FB000000001000000000000000100010001002D
:100FC000000001000100010001000100010001001A
:100FD0000100010001000100010001000100010009
:100FE00001000100010001000100010001000100F9
:100FF00001000100010001000100010001000100E9
:1010000001000100010001000100010001000100D8
:1010100001000100010001000100010001000100C8
:1010200001000100010001000100010001000100B8
:1010300001000100010000000100010001000100A9
:10104000010001000000000001000000000000009D
:101050000100010001000000010001000100010089
:101060000100010001000100010001000100010078
:101070000100010001000100010001000100010068
:101080000100010001000100010001000100010058
:101090000100010001000100010001000100010048
:1010A0000100010001000100010001000100010038
:1010B0000100010001000100010001000100010028
:1010C0000100010001000100010001000000010019
:1010D000010001000100010001000000000001000A
:1010E00000000000000001000100010000000100FC
:1010F00001000100010001000100010001000100E8
:1011000001000100010001000100010001000100D7
:1011100001000100010001000100010001000100C7
:1011200001000100010001000100010001000100B7
:1011300001000100010001000100010001000100A7
:101140000100010001000100010001000100010097
:101150000100010001000100010001000100010087
:101160000100000001000100010001000100010078
:10117000000000000100000000000000010001006C
:101180000100000001000100010001000100010058
:101190000100010001000100010001000100010047
:1011A0000100010001000100010001000100010037
:1011B0000100010001000100010001000100010027
:1011C0000100010001000100010001000100010017
:1011D0000100010001000100010001000100010007
:1011E00001000100010001000100010001000100F7
:1011F00001000100010001000000010001000100E8
:1012000001000100010000000000010000000000DA
:1012100000000100010001000000010001000100C8
:1012200001000100010001000100010001000100B6
:1012300001000100010001000100010001000100A6
:101240000100010001000100010001000100010096
:101250000100010001000100010001000100010086
:101260000100010001000100010001000100010076
:101270000100010001000100010001000100010066
:101280000100010001000100010001000100000057
:101290000100010001000100010001000000000048
:1012A000010000000000000001000100010000003A
:1012B000010001000000000000000000000000002C
:1012C000000000000000000000000000000000001E
:1012D000010000000000000000000000000000000D
:1012E00000000000000000000000000000000000FE
:1012F00000000000000000000000000000000000EE
:1013000000000000000000000000000000000000DD
:1013100000000000000000000000000000000000CD
:1013200000000000000000000000000000000000BD
:1013300000000000000000000000000000000000AD
:101340000000000000000000000044454255473AFC
:101350002064697361626C65642E0A0044454255DD
:10136000473A20656E61626C65642E0A000A0025AA
:1013700030313662003A200025303258000A722F90
:1013800063203031323334353637383941424344C3
:1013900045460A000A002530325820006B65796204
:1013A0006F6172645F7265706F72743A20000A0038
:1013B00025303258006B6579626F6172645F7365C6
:1013C000745F6C65643A2000290A002575002F00BF
:1013D0002575005D2800256400200025640020009C
:1013E00025640020002564007C0025303258006D03
:1013F0006F7573656B6579205B62746E7C7820799C
:10140000207620685D287265702F61636C293A2010
:101410005B006D6B5F776865656C5F74696D655FB8
:10142000746F5F6D6178203D2025640A006D6B5FED
:10143000776865656C5F6D61785F73706565642062
:101440003D2025640A006D6B5F74696D655F746F84
:101450005F6D6178203D2025640A006D6B5F6D61D2
:10146000785F7370656564203D2025640A006D6BAC
:101470005F696E74657276616C203D2025640A0098
:101480006D6B5F64656C6179203D2025640A006D99
:101490006B5F776865656C5F74696D655F746F5FBE
:1014A0006D6178203D2025640A006D6B5F7768656B
:1014B000656C5F6D61785F7370656564203D2025A4
:1014C000640A006D6B5F74696D655F746F5F6D6159
:1014D00078203D2025640A006D6B5F6D61785F7335
:1014E00070656564203D2025640A006D6B5F696E40
:1014F00074657276616C203D2025640A006D6B5F17
:1015000064656C6179203D2025640A000A00257518
:1015100000363A20776865656C5F74696D655F7445
:101520006F5F6D61783A20000A00257500353A201A
:10153000776865656C5F6D61785F73706565643A47
:1015400020000A00257500343A2074696D655F74C7
:101550006F5F6D61783A20000A00257500333A20EC
:101560006D61785F73706565643A20000A002575C7
:1015700000323A20696E74657276616C286D732949
:101580003A20000A00257500313A2064656C6179C3
:10159000282A31306D73293A20000A092D2056611E
:1015A0006C756573202D0A004D3E004D25643E206C
:1015B000003F007365742064656661756C740A0091
:1015C000433E200077686572652064656C74613AFB
:1015D00020637572736F723D25642C207768656592
:1015E0006C3D25640A53656520687474703A2F2F2A
:1015F000656E2E77696B6970656469612E6F7267BD
:101600002F77696B692F4D6F7573655F6B657973A4
:101610000A000A092D204D6F7573656B6579202DC1
:101620000A4553432F713A09717569740A313A09B1
:1016300064656C6179282A31306D73290A323A0960
:10164000696E74657276616C286D73290A333A0984
:101650006D61785F73706565640A343A0974696D09
:10166000655F746F5F6D61780A353A097768656503
:101670006C5F6D61785F73706565640A363A0977EF
:101680006865656C5F74696D655F746F5F6D6178C7
:101690000A0A703A097072696E742076616C756519
:1016A000730A643A097365742064656661756C74C5
:1016B000730A75703A092B310A646F776E3A092DF7
:1016C000310A706775703A092B31300A7067646FA0
:1016D000776E3A092D31300A0A7370656564203DD2
:1016E0002064656C7461202A206D61785F73706579
:1016F0006564202A2028726570656174202F20742B
:10170000696D655F746F5F6D6178290A003F004DF8
:101710003E2000433E20004C25640A0074696D653C
:10172000725F72656164333228293A202530346C47
:10173000580A006B6579626F6172645F69646C65F9
:101740003A2025580A006B6579626F6172645F7098
:10175000726F746F636F6C3A2025580A00686F735C
:10176000745F6B6579626F6172645F6C6564732826
:10177000293A2025580A000A092D205374617475EE
:1017800073202D0A004743433A20342E392E32204D
:101790004156522D4C4942433A20312E382E307357
:1017A000766E204156525F415243483A206176722C
:1017B000350A004F5054494F4E533A204C5546413C
:1017C000204D4F5553454B45592045585452414B98
:1017D000455920434F4E534F4C4520434F4D4D41AB
:1017E0004E4420343039360A004255494C443A20A0
:1017F00022302E362E3434392D362D676565386407
:1018000039622D646972747922202831363A323671
:101810003A35382041756720313520323031392949
:101820000A005649443A20307846454544284B4200
:101830004446616E7329205049443A203078303054
:101840003030284B4244363720486F7473776170CC
:1018500029205645523A203078303030310A004441
:101860004553433A204120637573746F6D203635BC
:1018700025206B6579626F6172640A000A092D2068
:1018800056657273696F6E202D0A000A092D204378
:101890006F6E736F6C65202D0A4553432F713A09A3
:1018A000717569740A6D3A096D6F7573656B657949
:1018B0000A000A092D204D61676963202D0A443A08
:1018C000094465627567204D6573736167652054CF
:1018D0006F67676C650A583A094D617472697820C0
:1018E0004465627567204D6F646520546F67676C4F
:1018F00065202D2053686F77206B65797072657352
:1019000073657320696E206D6174726978206772E7
:1019100069640A4B3A094B6579626F6172642044CD
:101920006562756720546F67676C65202D2053686A
:101930006F77206B65797072657373207265706F55
:1019400072740A4D3A094465627567204D6F75736C
:101950006520546F67676C650A563A09566572735D
:10196000696F6E0A533A095374617475730A433A86
:1019700009416374697661746520436F6E736F6C9F
:1019800065204D6F64650A46312D4631303A095362
:10199000776974636820746F204C617965722030B8
:1019A0002D392028463130203D204C30290A302D59
:1019B000393A0953776974636820746F204C6179F0
:1019C000657220302D390A47524156453A095377FE
:1019D0006974636820746F204C61796572203020CF
:1019E00028616C7465726E617465290A423A094A0D
:1019F000756D7020746F20426F6F746C6F616465D9
:101A0000720A4553433A094A756D7020746F20423B
:101A10006F6F746C6F616465722028616C7465729D
:101A20006E617465290A453A095072696E742045E1
:101A30004550524F4D2053657474696E67730A4266
:101A400053504143453A09436C6561722045455006
:101A5000524F4D0A000A002575002E6E6B726F3AC8
:101A600020000A002575002E737761705F62616344
:101A70006B736C6173685F6261636B7370616365E4
:101A80003A20000A002575002E737761705F677237
:101A90006176655F6573633A20000A002575002E44
:101AA0006E6F5F6775693A20000A002575002E7316
:101AB0007761705F72616C745F726775693A20005C
:101AC0000A002575002E737761705F6C616C745F1E
:101AD0006C6775693A20000A002575002E636170F5
:101AE000736C6F636B5F746F5F636F6E74726F6C38
:101AF0003A20000A002575002E737761705F636FCE
:101B00006E74726F6C5F636170736C6F636B3A209D
:101B1000000A0025303258006B65796D61705F6393
:101B20006F6E6669672E7261773A20000A0025752C
:101B3000002E6D6F7573653A20000A002575002E22
:101B40006B6579626F6172643A20000A0025750046
:101B50002E6D61747269783A20000A002575002E96
:101B6000656E61626C653A20000A002530325800CB
:101B700064656275675F636F6E6669672E72617711
:101B80003A20000A0025750064656661756C745F13
:101B90006C617965723A20003F000A6D6F7573655C
:101BA0003A206F66660A000A6D6F7573653A206F9A
:101BB0006E0A000A6B6579626F6172643A206F6623
:101BC000660A000A6B6579626F6172643A206F6E13
:101BD0000A000A6D61747269783A206F66660A00BD
:101BE0000A6D61747269783A206F6E0A000A646542
:101BF0006275673A206F66660A000A6465627567F7
:101C00003A206F6E0A000A0A4A756D70696E672085
:101C1000746F20626F6F746C6F616465722E2E2E0C
:101C20002000433E2000436C656172696E67204569
:101C30004550524F4D0A006565636F6E6669673A9D
:101C40000A005B735D004B6579626F61726420739B
:101C5000746172742E0A005B575D005B535D005B1C
:101C6000525D005B445D005B435D00040330000097
:101C7000001C034B0042004400360037002000489F
:101C8000006F0074007300770061007000000010A6
:101C9000034B0042004400460061006E00730000E8
:101CA000000403090409025B00030100A0FA09040F
:101CB000000001030101000921110100012240007F
:101CC0000705810308000A09040100010300000060
:101CD0000921110100012285000705820320000A65
:101CE0000904020002030000000921110100012281
:101CF00022000705830320000107050303200001DC
:101D00001201100100000008EDFE000001000102B8
:101D100003010631FF0974A1010975150026FF00B2
:101D20009520750881020976150026FF009520751B
:101D3000089102C005010902A10185020901A10063
:101D4000050919012905150025019505750181026F
:101D50009501750381010501093009311581257F40
:101D600095027508810609381581257F950175084A
:101D70008106050C0A38021581257F9501750881B9
:101D800006C0C005010980A10185031601002603D4
:101D9000001A81002A8300751095018100C0050C8E
:101DA0000901A1018504160100269C021A01002ADE
:101DB0009C02751095018100C005010906A101056D
:101DC0000719E029E715002501950875018102959D
:101DD000017508810105081901290595057501910D
:101DE000029501750391010507190029FF150026C9
:101DF000FF00950675088100C00011241FBECFEFBB
:101E0000DAE0DEBFCDBF04B603FE27C080911F021B
:101E100090912002A0912102B09122028730904B34
:101E2000A740B04BD1F410921F02109220021092E2
:101E300021021092220214BE84B7877F84BF0FB69E
:101E4000F894A8958091600088618093600010925A
:101E500060000FBEE0E0F8E3099511E0A0E0B1E01A
:101E6000EEE7F9E602C005900D92A034B107D9F76C
:101E700022E0A0E4B1E001C01D92AF31B207E1F76A
:101E80000E94D12E0C94BD340C940000FF93EF936C
:101E9000E0914001F0914101309709F00995EF91EF
:101EA000FF910895FC018591803011F0EFDFFBCFA9
:101EB0000895FF27E0E230E247FF0CC0419597FF0D
:101EC00009C0EDE26095709580959095611D711D3A
:101ED000811D911D27FF02C0219530E350E2AA2702
:101EE000660F771F881F991FAA1FA41710F0A41B45
:101EF00063955A95A9F7AA3008F0A95FA05DAF9342
:101F0000F395611571058105910541F7ED3211F4E5
:101F1000EF93F395F21718F43F93F395FBCF8F915E
:101F2000B5DFFA95E1F70895E991F991859180304F
:101F300021F0853219F0AADFF9CF089520E0E89466
:101F400055915532C1F3503311F4689455915A3379
:101F500048F4505390F3220F022E220F220F200D2F
:101F6000250FF4CF0EF4219589919991533619F3E9
:101F7000533729F1533559F1BC0188279927E89443
:101F80005C3621F48991999168945591543639F4CD
:101F900046EF7EF077FF0DC08FEF9FEF0AC05537F9
:101FA0004AE039F0583540E121F0523642E009F07C
:101FB0000895FF93EF937DDFEF91FF91B7CFFF93EC
:101FC000EF93FC0181918030B9F360DFFBCFFF9389
:101FD000EF9368DFF1CFDF93CF93CDB7DEB72596D0
:101FE000A3DFCF91DF9108950C94D4130C94D513F3
:101FF0000C94FE0F0C94581081E0089581E0089530
:102000001F93CF93DF9300D000D01F92CDB7DEB7E0
:1020100049835A8320916E0189819A81211112C0CE
:10202000662349F00E945721182F682F89819A81D1
:102030000E94FC2003C00E942B21182F69817A8105
:10204000812F04C00E94572169817A810F900F90DF
:102050000F900F900F90DF91CF911F910C9465110D
:10206000FC01408151816281738184810C94001054
:102070000E9471148FE39CE90197F1F700C0000002
:102080000E94711480E00E94D61380FF04C00E9459
:10209000BC220C94762408950E9438100E94C2221B
:1020A000811102C00E9448230C94F40F0C94F60F87
:1020B00008950C94FA0F08950E94221C0E945B1050
:1020C0002FEF84E39CE0215080409040E1F700C076
:1020D00000000C9476240F931F93CF93DF938C0111
:1020E0000E943010EC01B8010E94F80F8823D9F04B
:1020F000B801CE010E94B0158823A9F0C531FCE5D6
:10210000DF0708F088C0C2308CE5D80770F4C1152D
:10211000ECE5DE0709F05BC0F801C281CC2309F4CD
:10212000CAC00E945C10C0E0C6C0F801828188234A
:1021300009F450C00E94C222811102C00E944823AB
:102140000E94D52290E09093110280931002FE012C
:10215000E350FC45E231F10530F4EA5AFF4F80913B
:1021600010020C94613480911002816027C082605B
:1021700025C0846023C0806121C080621FC080644C
:102180001DC080681BC08460886018C08E7F16C028
:102190008D7F14C08B7F12C08F7E10C08F7D0EC0CC
:1021A0008F7B0CC08F770AC08B7F877F07C087FB30
:1021B000222720F991E0922790FB87F98093100263
:1021C000809110020E94D9220E94221CACCFC13003
:1021D000DC4539F0C801DF91CF911F910F910C942C
:1021E000FC0FF801C281CC2309F465C08091EE0197
:1021F000C82FC095C170C0FB80F98093EE01CC233D
:1022000029F08CE593E10E94520F8DCF8AE493E18F
:102210000E94520F50C0CC3D8CE5D80739F4F8012C
:10222000C281CC2309F447C080E00DC0CD3DECE570
:10223000DE0760F0CD3D8CE5D80791F5F801C2814D
:10224000CC23C9F182E00E94792F6DCFC631DC45E5
:1022500009F60E94D721282FF801828140910001C0
:1022600050910101882379F02A7A91E009F490E0F5
:1022700090934201911102C069E201C065E3CA0175
:102280000E947C230AC080914201811102C069E250
:1022900001C065E3CA010E947E230E94232243CF2E
:1022A000CE3DDC4509F096CFF801C281CC2319F070
:1022B0000E94482338CF8C2FDF91CF911F910F912F
:1022C000089580E090E0089508959FE0799FF001DF
:1022D00011249BE4899FE00DF11D1124E60FF11DEF
:1022E000EE0FFF1FE05EFE4F859194910895880FD9
:1022F000991FFC01E359FC4E859194910895CF9369
:10230000DF930E9465110E943413EC01811520E5D2
:102310009207F0F5811530E4930708F024C1883E58
:10232000910500F5803E910508F09AC1883A910523
:1023300070F4853A910508F09FC08130910509F449
:102340008FC108F440C1049708F08AC13CC18F3B9B
:10235000910508F49CC0803C910508F434C1805C70
:102360009109F4C0811540E2940758F4C11581E049
:10237000D80708F075C1C03FD10508F424C1D06565
:102380006FC1811520E3920708F0E4C09F70DEC0A2
:10239000811535E5930708F044C0811544E594079D
:1023A00008F0F8C0C11582E5D80708F5C11521E588
:1023B000D20708F0DBC08C2F837021E030E002C030
:1023C000220F331F8A95E2F73C68CE0174E09695A0
:1023D00087957A95E1F78370382BCF70C695C695AF
:1023E00080E2C89FE0011124C22BD32B39C12C2FCE
:1023F00026952695CE0183709927C115D34508F0FF
:10240000BAC040E2249F90011124C1E0D0E002C094
:10241000CC0FDD1F8A95E2F72C2B3D2BE901DC6800
:102420001FC1811549E59407A0F4C11588E5D807B7
:1024300008F0B5C0C11526E5D20708F0C4C08C2F3E
:102440000E94B1138F71C82FD0E0DC2FCC27D0624F
:1024500007C181153AE5930708F4A6C09056811587
:10246000904208F0B0C08D2F8F710E94B113DD270C
:10247000D0628F71D82BF4C0853A910509F4A6C0BB
:10248000863A910509F0A5C0C2E8D0E4E9C0883ACF
:10249000910509F4A1C0893A910509F4A0C08A3ACE
:1024A000910509F49FC08B3A910509F49EC08C3ABE
:1024B000910509F49DC08B3B910509F49CC08C3BB0
:1024C000910509F49BC08D3A910509F49AC0803BAF
:1024D000910509F499C08E3A910509F498C08F3A94
:1024E000910509F497C0813B910509F496C0823BA0
:1024F000910509F495C0833B910509F494C0843B90
:10250000910509F493C0853B910509F492C0863B7F
:10251000910509F491C0873B910509F490C0883B6F
:10252000910509F48FC0893B910509F48EC08D3B5C
:10253000910509F48DC08E3B910509F48CC08A3B4E
:10254000910509F48BC0C0E0D4E48AC00E947711E1
:10255000EC0186C09927D3FF03C0EC01D86C80C082
:10256000EC01D06C7DC0DF70D06A7AC0DC2FCC2744
:10257000C16FD06A75C040E2249F90011124C1E070
:10258000D0E002C0CC0FDD1F8A95E2F7C22BD32B1F
:10259000DA6866C0D82FCC27C46FD06A61C0DC2F40
:1025A000CC27C06FD06A5CC08F700E94B11394E0DA
:1025B000D695C7959A95E1F7CF70D0E0DC2FCC2760
:1025C000D069C82B4DC0C0E0D0E04AC0C1E8D0E41B
:1025D00047C0C3E8D0E444C0C2EED4E441C0C9EE71
:1025E000D4E43EC0CAEED4E43BC0C5EBD4E438C06A
:1025F000C6EBD4E435C0C3EBD4E432C0C4EBD4E4BE
:102600002FC0C7EBD4E42CC0CCECD4E429C0CDEC73
:10261000D4E426C0C3E8D5E423C0CAE8D5E420C08A
:10262000C2E9D5E41DC0C4E9D5E41AC0C1E2D6E4CC
:1026300017C0C3E2D6E414C0C4E2D6E411C0C5E2B8
:10264000D6E40EC0C6E2D6E40BC0C7E2D6E408C0AA
:10265000CFE6D4E405C0C0E7D4E402C0CAE2D6E4C1
:10266000CE01DF91CF9108958238910549F1B0F400
:102670008133910509F458C048F48932910509F471
:102680004EC08A32910509F454C0089585339105EE
:1026900009F440C08933910599F00895833E91056E
:1026A00029F138F4803E910591F0823E9105A1F028
:1026B0000895863E9105F9F0873E910531F1089520
:1026C0002091100220FD3AC021FD38C0089580916C
:1026D000100280FD35C032C08091100282FF32C0EE
:1026E0008091100284FD30C083EE39C080911002C9
:1026F00082FD28C0F5CF8091100283FF27C0809112
:10270000100284FD21C087EE2AC08091100283FD53
:102710001DC0F5CF8091100285FD1AC01BC08091AD
:10272000100285FD17C014C08091100286FD14C0F0
:1027300015C08091100286FD11C00EC080EE0FC042
:1027400089E30DC082EE0BC080E009C086EE07C0B1
:1027500089E205C085E303C08AE201C081E390E01D
:1027600008959091100292FF0DC0282F28712830F3
:1027700019F4877F846006C0282F2471243011F457
:102780008B7F886093FF0DC0282F2871283119F4A2
:10279000877E846106C0282F2471243111F48B7E3A
:1027A000886194FD877E089508950895E82FF0E0EC
:1027B000EE0FFF1FED5BFE4F808191810895CF9258
:1027C000DF92EF92FF920F931F93CF93DF938DE7EA
:1027D00093E10E94520F83E4E82E81E0F82EC0E0DE
:1027E000D0E098E7C92E93E1D92E0FE613E1DF93ED
:1027F000CF93DF92CF920E94EB0F85E793E10E9487
:10280000520FF701819191917F010E94A2229F9323
:102810008F931F930F930E94EB0F8DE693E10E941D
:10282000520F21968DB79EB708960FB6F8949EBFAB
:102830000FBE8DBFC530D105D1F6DF91CF911F916D
:102840000F91FF90EF90DF90CF900895A2E2B1E05A
:1028500041E050E025E02A0F8D91E82FE295EF70DE
:10286000F0E031A18F70BA0102C0660F771F8A9520
:10287000E2F7CB01962F9095932391A392A1892BF8
:1028800082A32A13E9CFA3E1B1E041E050E02FE0B9
:102890002A0F8D91E82FE295EF70F0E031A18F7053
:1028A000BA0102C0660F771F8A95E2F7CB01962F17
:1028B0009095932391A392A1892B82A32A13E9CF08
:1028C000EDE4F1E0A3E4B1E0119211921D921D92AA
:1028D00071E0E735F707C1F785E00E9408150C9411
:1028E0004C105F926F927F928F929F92AF92BF92A5
:1028F000CF92DF92EF92FF920F931F93CF93DF93CC
:1029000002E211E0ADE4B1E0612CEE24E394F12C9D
:102910005D018D909C90119711961C921E92E8017A
:1029200089918E01E82FE295EF70F0E091A18F7010
:10293000A70101C0440F8A95EAF7892F842B81A350
:1029400082A1542E5094852182A3D0EADA95F1F722
:1029500083E1C82E81E0D82E80E090E0E6017990F6
:102960006E01272D22952F7030E0E90168A12D918D
:102970003C91119770E0D72DDF7002C07595679577
:10298000DA95E2F760FD08C0B701082E02C0660FB5
:10299000771F0A94E2F702C060E070E0262B372B25
:1029A00011963C932E9301968F309105B9F681A133
:1029B000D52DD823D1A382A1482B42A3129681E022
:1029C000F501208131818216930609F480E0682A9E
:1029D000F1E0A735BF0709F09BCF262D45E063E462
:1029E00071E08DE491E00E9409150E945610862D39
:1029F000DF91CF911F910F91FF90EF90DF90CF90DB
:102A0000BF90AF909F908F907F906F905F90089550
:102A10000895FF920F931F93CF93DF93F82E092F02
:102A2000162FD72FC42F222349F081E0809359011C
:102A30000E940E2490935801809357018091590170
:102A40008823D9F080915701909158010E94262443
:102A5000069798F0EF2DF02FA12FBD2F80E090E08A
:102A60004C2F50E08417950734F4219131912D9328
:102A70003D930196F7CF10925901DF91CF911F91AD
:102A80000F91FF9008950F931F93CF93DF93C62F5D
:102A9000D42F022FFC0182818823C9F060935C014E
:102AA0000E940E2490935B0180935A0180E28C0F68
:102AB000883008F050C0C77081E001C0880FCA9507
:102AC000EAF7DF91CF911F910F910C94711910913A
:102AD0005C01161330C080915A0190915B010E94F5
:102AE0002624883C910538F5C0E2CD0F1D17B9F0BA
:102AF00080E2810F883040F4177081E001C0880FB8
:102B00001A95EAF70E947819C83048F481E09D2FA1
:102B1000977001C0880F9A95EAF70E947119802F6B
:102B20000E945E19C830B8F4D77081E001C0880FE8
:102B3000DA95EAF70AC080E28C0F883060F4C7703B
:102B400081E001C0880FCA95EAF7DF91CF911F910C
:102B50000F910C947819DF91CF911F910F910895E7
:102B60009C01CB01203F4CE53407F9F078F4283D77
:102B7000FCE53F07B9F0293D4CE5340711F1273D4D
:102B80003C4531F526E241EE61EE1EC0223FFCE5F8
:102B90003F0799F070F0233F3C45D1F427E245EE22
:102BA00066EE12C027E245EE0EC026E241EE60EE70
:102BB0000BC027E245EE64EE07C026E241EE62EE6E
:102BC00003C028E241E065EE0E94431580E00895CD
:102BD000FC018281882319F010925C01089581E044
:102BE000089590936201809361010895E0916101DD
:102BF000F0916201309721F00190F081E02D09946D
:102C000080E00895EF92FF920F931F93CF93DF938D
:102C1000E0916101F09162013097B1F18C01028085
:102C2000F381E02D09958091EE0182FF2DC080FF98
:102C300004C08CE993E10E94520FE80118E086E994
:102C4000E82E83E1F82E8091EE0180FF0BC0888191
:102C50001F928F93FF92EF920E94EB0F0F900F90B5
:102C60000F900F90115021961111EDCF8091EE0130
:102C700080FF0AC084E993E1DF91CF911F910F910A
:102C8000FF90EF900C94520FDF91CF911F910F9115
:102C9000FF90EF900895E0916101F091620130970B
:102CA00039F022E0DC012C930480F581E02D0994B9
:102CB000089520915F01309160018217930771F0B0
:102CC0009093600180935F01E0916101F091620156
:102CD000309721F00680F781E02D09940895209126
:102CE0005D0130915E018217930771F090935E0150
:102CF00080935D01E0916101F0916201309721F0D4
:102D00000084F185E02D0994089585B7806885BF1A
:102D100085B7806885BF0895089508950C948D1631
:102D200008950C9490160E9485160E948C160C949F
:102D30008E1681E008950E9405240E9426140E94A8
:102D40009A240C949116CF93C82F8091EE0182FFA4
:102D50001EC080FF04C085EB93E10E94520F80915A
:102D6000EE0180FF0CC01F92CF9380EB93E19F9305
:102D70008F930E94EB0F0F900F900F900F90809108
:102D8000EE0180FF04C08EEA93E10E94520F8C2F67
:102D9000CF910C9459104F925F927F928F929F9295
:102DA000AF92BF92CF92DF92EF92FF920F931F9359
:102DB000CF93DF93CDB7DEB72A970FB6F894DEBF77
:102DC0000FBECDBF0E9471140E949916811111C0CF
:102DD0008FEF89838A831B820E940E248160782F63
:102DE0009D838C8349815A816B818D810E948917D3
:102DF00057C094E6C92E91E0D92E00E010E0AA2435
:102E0000A394B12C702E802F0E94D6134C01F60192
:102E1000419051906F01482659264114510431F4D4
:102E20000F5F1F4F0530110569F7D2CF8091EE017A
:102E300081FD0E94DF1320E030E07501022E02C008
:102E4000EE0CFF1C0A94E2F7C70184219521892B1F
:102E500009F12E837F828E209F2091E0892809F43A
:102E600090E098870E940E248160782F9A87898746
:102E70004E815F8168858A850E948917000F111F26
:102E8000F801EC59FE4F80819181E826F926F18204
:102E9000E08206C02F5F3F4F2F30310571F6C0CF63
:102EA0000E94AF26109163010E94F6151817D9F001
:102EB0000E94F615809363012A960FB6F894DEBF40
:102EC0000FBECDBFDF91CF911F910F91FF90EF907B
:102ED000DF90CF90BF90AF909F908F907F905F904A
:102EE0004F900C94A3162A960FB6F894DEBF0FBE2F
:102EF000CDBFDF91CF911F910F91FF90EF90DF90A9
:102F0000CF90BF90AF909F908F907F905F904F90A9
:102F10000895CF93DF93CDB7DEB72B970FB6F89414
:102F2000DEBF0FBECDBF4F83588769877A878B87F7
:102F3000DE01119686E0FD0111928A95E9F785E0A0
:102F4000FE01379601900D928A95E1F749815A81E9
:102F50006B817C818D819E810E94CC1E2B960FB649
:102F6000F894DEBF0FBECDBFDF91CF910895FC0175
:102F7000808191810E9498210895CF93DF931F92C1
:102F8000CDB7DEB7882309F42DC1682F8238C1F48C
:102F90000E94F61581FD26C169E3809100019091A0
:102FA00001010E947C230E9423222FEF81EE94E0F6
:102FB000215080409040E1F700C0000069E319C053
:102FC000833811F50E94F61580FD0CC163E58091F0
:102FD0000001909101010E947C230E9423222FEF87
:102FE00081EE94E0215080409040E1F700C0000065
:102FF00063E580910001909101010E947E230F9072
:10300000DF91CF910C9423228438C1F40E94F615ED
:1030100082FDE8C067E480910001909101010E9467
:103020007C230E9423222FEF81EE94E021508040E8
:103030009040E1F700C0000067E4DBCF8CEF860F23
:10304000813A70F4862F69830E941C2B698181115B
:10305000C9C080910001909101010E947C23CFCFD3
:1030600080E2860F883048F4677081E001C0880FE5
:103070006A95EAF70E94DA21C2CF8BE5860F83308A
:1030800088F4653A29F0663A31F083E890E005C0AB
:1030900081E890E002C082E890E00F90DF91CF914C
:1030A0000C94591688E5860F873108F091C0683A6C
:1030B00009F445C0693A09F445C06A3A09F445C0C3
:1030C0006B3A09F445C06C3A09F445C06B3B09F40E
:1030D00045C06C3B09F445C06D3A09F445C0603BFE
:1030E00009F445C06E3A09F445C06F3A09F445C089
:1030F000613B09F445C0623B09F445C0633B09F4F8
:1031000045C0643B09F445C0653B09F445C0663BD6
:1031100009F445C0673B09F445C0683B09F445C064
:10312000693B09F445C06D3B09F445C06E3B09F4A9
:1031300045C06A3B09F445C080E090E044C082EE9F
:1031400090E041C089EE90E03EC08AEE90E03BC046
:1031500085EB90E038C086EB90E035C083EB90E0E3
:1031600032C084EB90E02FC087EB90E02CC08CEC59
:1031700090E029C08DEC90E026C083E891E023C068
:103180008AE891E020C082E991E01DC084E991E0E5
:103190001AC081E292E017C083E292E014C084E298
:1031A00092E011C085E292E00EC086E292E00BC090
:1031B00087E292E008C08FE690E005C080E790E0EB
:1031C00002C08AE292E00F90DF91CF910C946F16CB
:1031D000603F40F0862F0E9435250F90DF91CF9100
:1031E0000C9422260F90DF91CF910895882309F443
:1031F00064C0823879F40E94F61581FF5EC069E3ED
:1032000080910001909101010E947C230E94232261
:1032100069E310C08338B1F40E94F61580FF4DC0F9
:1032200063E580910001909101010E947C230E943E
:10323000232263E580910001909101010E947E2389
:103240000C942322843879F40E94F61582FF35C04D
:1032500067E480910001909101010E947C230E940B
:10326000232267E4E7CF9CEF980F913A10F4682F80
:10327000E1CF90E2980F983050F4877091E001C050
:10328000990F8A95EAF7892F0E94E021D9CF9BE513
:10329000980F933020F480E090E00C94591698E554
:1032A000980F973120F480E090E00C946F16803FE7
:1032B00020F00E949D250C9422260895CF93C82FBC
:1032C0000E94BD17C93349F42FEF87EE93E02150D8
:1032D00080409040E1F700C000008C2FCF910C940B
:1032E000F618882321F00E94DA210C9423220895F5
:1032F000882321F00E94E0210C9423220895BF929C
:10330000CF92DF92EF92FF920F931F93CF93DF93B1
:103310007C01062FC72FFC01158112951F70D281E9
:10332000D1110E94F7210E94D021882379F0DD235A
:1033300069F080E2800F883048F082E00E946E22BF
:103340000E94D02191E0B82EB92601C0B12CCC2E1C
:10335000C2948FE0C822D12CF601E859FF4F0C949B
:1033600061348C2F807FCF70882311F0C295C07F8D
:10337000DD2399F0CC2309F4CEC180E2800F8830A0
:1033800010F0011104C08C2F0E94DA2103C08C2F91
:103390000E94EA210E942322BEC1802F0E94F618BB
:1033A000CC2309F4DDC180E2800F883010F00111D8
:1033B00004C08C2F0E94E02103C08C2F0E94F021BA
:1033C0000E942322CDC18C2F807FCF70803211F0DC
:1033D000C295C07F002319F00130C9F022C0DD235F
:1033E00071F0112341F0113031F40E940A228C2B2C
:1033F0000E941022B5C10E940A228C2B1DC01123ED
:1034000019F0113009F4ACC10E94192225C0DD2346
:1034100021F0163008F0A4C10EC0153008F0A0C18C
:103420001BC0DD2361F0112331F0F701858180FF9E
:1034300072C18F7085838C2F0E94711991C11123E5
:1034400059F0093309F078C1FFEF27EE83E0F1501E
:1034500020408040E1F76EC18C2F0E94781980C116
:103460008C2F86958695837090E0009719F00197D0
:1034700061F076C1DD2321F0802F9C2F937002C074
:1034800080E090E00E94591676C1DD2321F0802F64
:103490009C2F937002C080E090E00E946F166BC179
:1034A000DD23F9F0053F51F0063F71F0043FA9F428
:1034B00080910A0290910B0281600BC080910A02F8
:1034C00090910B02826005C080910A0290910B02DC
:1034D000846090930B0280930A02802F0E9435250E
:1034E0001EC0053F51F0063F71F0043FA9F48091E2
:1034F0000A0290910B028E7F0BC080910A0290917C
:103500000B028D7F05C080910A0290910B028B7F88
:1035100090930B0280930A02802F0E949D250E94A7
:10352000222629C18C2F837009F049C0D1111FC1F7
:10353000402F429546954770440F440F602F6F709F
:10354000862F90E0A0E0B0E0042E04C0880F991F01
:10355000AA1FBB1F0A94D2F704FF10C00FE010E0AF
:1035600020E030E004C0000F111F221F331F4A95D6
:10357000D2F7009510952095309503C000E010E03B
:103580009801C695C695C370D0E0BC01CD01602BF3
:10359000712B822B932BC230D10559F0C330D1054A
:1035A00059F0219719F00E941120E1C00E94FF1FDD
:1035B000DEC00E942320DBC00E94FD1FD8C0DD2397
:1035C00019F08C2F817001C08695882309F4CFC033
:1035D000402F429546954770440F440F602F6F70FF
:1035E000862F90E0A0E0B0E0042E04C0880F991F61
:1035F000AA1FBB1F0A94D2F704FF10C00FE010E00F
:1036000020E030E004C0000F111F221F331F4A9535
:10361000D2F7009510952095309503C000E010E09A
:103620009801C695C695C370D0E0BC01CD01602B52
:10363000712B822B932BC230D10559F0C330D105A9
:1036400059F0219719F00E94D72091C00E94C520FF
:103650008EC00E94E9208BC00E94382088C0CF70A5
:10366000DD2339F08C2F0E945E20802F0E9471197B
:103670007EC0802F0E9478198C2F0E947F2077C0F7
:10368000023F01F128F4003F41F0013FA1F03FC0AB
:10369000033FF9F0043F39F13AC0DD2341F0153022
:1036A00008F05EC08C2F8F710E94A42059C0163084
:1036B00008F056C0F7CFDD2339F08C2F8F710E94B0
:1036C0005E204EC0DD23C9F38C2F8F710E947F20B6
:1036D00047C0DD2329F08C2F8F710E94492040C004
:1036E0000E9444203DC0DD2349F0CF718C2F0E9401
:1036F0005E2063E08C2F0E94592232C081E00E943C
:103700006E22123068F182E00E946E2229C0DD2311
:1037100031F0112391F2802F0E94BD1721C0112397
:1037200099F2093349F49FEFE7EEF3E09150E0405E
:10373000F040E1F700C00000802F0E94F61810C092
:103740004C2F4F70602FC7010E9461110E94701FA3
:1037500012C04C2F4F70602FC7010E9464110BC024
:1037600028E0C21AD10884E0C816D10420F40E94CF
:10377000F6150E945910BB20D1F00E94CC2180FD8B
:1037800016C0F70112820E94C6210E945E20C70166
:103790000E94E11B0E94C621DF91CF911F910F91E2
:1037A000FF90EF90DF90CF90BF900C947F20DF913F
:1037B000CF911F910F91FF90EF90DF90CF90BF902E
:1037C00008950F931F93CF93DF93EC018881998124
:1037D0002B813C81232BB9F09F3F11F48F3F99F04F
:1037E000CE010E946B10882371F0688179818A81F3
:1037F0000E94A3218C010E94FB200E94FC1FB801A3
:10380000CE010E947F19DF91CF911F910F910895F2
:103810000E94F7210E9407220E9423220E944A2729
:103820000E94222680E090E00E94591680E090E0FD
:103830000C946F1680910001909101010E948023E9
:103840000C94081C0E94E7210C941A1CE92FE295A5
:10385000EF70F0E03297EE30F105B0F4E858FF4F2A
:103860000C946134803F91F018F4883E68F40EC0E7
:10387000843F51F40BC0883E48F0813F29F406C0D4
:1038800093FB882780F9089580E0089581E00895EA
:103890000E9498210E94261C0895CF93DF9300D0A8
:1038A00000D01F92CDB7DEB70F900F900F900F9002
:1038B0000F90DF91CF910895CF93DF9300D000D088
:1038C00000D0CDB7DEB726960FB6F894DEBF0FBE98
:1038D000CDBFDF91CF9108951F93CF93DF93C09118
:1038E0006F0116E080917001C81799F0D0E01C9F1D
:1038F000F0011D9FF00D1124EF58FE4F40815181C2
:1039000062817381848195810E945C1C2196C770BD
:10391000E9CFDF91CF911F9108954091A10150917E
:10392000A2016091A3017091A4018091A5019091E1
:10393000A6010C945C1C8091A60182958F7009F001
:1039400054C08091A301882309F44FC080916F0176
:10395000A09170016091A1017091A2014091A40118
:103960005091A501B6E08A1709F43FC090E04115D7
:103970005105C1F17F3F11F46F3FA1F1B89FF001F4
:10398000B99FF00D1124EF58FE4F218172132AC008
:103990002081621327C02281211124C02381348118
:1039A0002417350710F421503109241B350B283C0E
:1039B0003105C0F42091A6012F7020612093A6014B
:1039C00026E0289FF001299FF00D1124EA58FE4FB0
:1039D00080818F708061808381EA91E00E94E11B89
:1039E0000C946C1C01968770BECF0895CF92DF9225
:1039F000EF92FF920F931F93CF93DF93CDB7DEB774
:103A000062970FB6F894DEBF0FBECDBF8C0185E084
:103A1000F801DE011D9601900D928A95E1F7D8011B
:103A20004C9111965C91119712966C911297139686
:103A3000CD90DC9014973091A1017091A2018091FA
:103A4000A4019091A501009709F46BC17F3F19F47F
:103A50003F3F09F466C1E090A301EE2009F4C0C025
:103A60002091A601C816D90628F0F601E81BF90B2B
:103A7000CF0104C0809590958C0D9D1DFF24F3947B
:103A8000883C910578F0F12C207F09F0C6C07C2D90
:103A9000D98AC88A89890E944D1C81EA91E00E94D6
:103AA000E11BB1C0822F807F09F046C0751314C09E
:103AB000341312C0611110C02F7020612093A60131
:103AC0000E948D1C81EA91E00E94E11B8091A60179
:103AD000D80115968C932EC0CD2819F15F3F11F4B3
:103AE0004F3FF9F0F62E61111CC080916F012091BB
:103AF000700136E0821709F45AC090E0389FF00157
:103B0000399FF00D1124EF58FE4F7181571306C0F5
:103B10007081471303C07281711103C001968770D1
:103B2000E9CFF62E662309F427C18091A6018160B2
:103B30008093A601F12C20C1751308C0341306C070
:103B4000611104C08091A601D801C3C04D875E8772
:103B50008D859E856A8B0E94481C6A898823E1F1C5
:103B60006623D1F12091A601822F82958F7090E07B
:103B7000029774F08091A1019091A20198878F83A0
:103B80001986DB86CA862C87CE0107960E94E11B28
:103B900086E0F801A1EAB1E001900D928A95E1F783
:103BA0000E949B1C0E948D1CFF24F394E5C04D874E
:103BB0005E878D859E850E949821292F22952F70E2
:103BC00030E0223031050CF0CBC09F7009F0C5C049
:103BD000805E883008F4D0C0C8010E94E11BE4CFA9
:103BE000C816D90608F453C0F601E81BF90BCF013B
:103BF000883C910508F450C0F12C7C2DD98AC88AE4
:103C000089890E944D1CE1EAF1E086E0DF011D9206
:103C10008A95E9F70E948D1CAFC0751314C0341348
:103C200012C0611110C08091A601F8018583C801FE
:103C30000E94E11B86E0E1EAF1E0DF011D928A9536
:103C4000E9F7FE2C99C04D875E878D859E856A8B2E
:103C50000E94481C6A89882309F4BECF662309F4B0
:103C6000BBCF2091A601822F82958F7090E00297A2
:103C70000CF48ECF8091A1019091A2019A83898347
:103C80001B82DD82CC822E83CE0101967FCF809570
:103C900090958C0D9D1DACCFF62E662309F49CCF1C
:103CA00075132EC034132CC02091A60120FD1FC017
:103CB000822F82958F70D9F0D80115962C93159785
:103CC0008F3049F08F5F982F9295907F822F8F7061
:103CD000892B15968C93C8010E94E11B86E0F801A0
:103CE000A1EAB1E001900D928A95E1F793CF86E0C9
:103CF000F801A1EAB1E001900D928A95E1F73CC08C
:103D00004D875E878D859E850E94481C811140CF1E
:103D10008091A60181608093A601C8010E94E11BE9
:103D20002BC0662309F458CF4D875E878D859E850D
:103D30000E94481CF82E882309F44ECF86E0F80133
:103D4000A1EAB1E001900D928A95E1F781EA91E054
:103D50000E94B7170E949B1C5DCF811139CF0CC008
:103D6000243031050CF038CF9F7009F431CFF801C1
:103D70009581907F09F02CCF8F2D62960FB6F89425
:103D8000DEBF0FBECDBFDF91CF911F910F91FF908E
:103D9000EF90DF90CF9008951F93CF93DF93CDB72F
:103DA000DEB72C970FB6F894DEBF0FBECDBF4F83A2
:103DB000588769877A878B879C87CE0107960E94F0
:103DC000F61C882369F08F8198852A853B85232BF3
:103DD000F1F19F3F09F063C08F3F09F060C037C029
:103DE00086E0FE013796DE01119601900D928A95CC
:103DF000E1F76F817885EA85FB85309741F17F3F58
:103E000011F46F3F21F12091700130E0C90101965A
:103E10008770992740916F0150E08417950709F446
:103E200047C069837A83FD83EC8396E0929FD0013B
:103E3000939FB00D1124AF58BE4FFE0131960190F3
:103E40000D929A95E1F7809370010E946C1C16E028
:103E500080916F01909170018917C1F1189FC00185
:103E600011248F589E4F0E94F61C882379F1E0910F
:103E70006F011E9FF0011124EF58FE4F40815181C8
:103E800062817381848195810E945C1C80916F01A5
:103E900090E001968770992780936F01D9CF4F8169
:103EA000588569857A858B859C850E945C1CCFCF5F
:103EB0000E94221C1092700110926F01E1EAF1E061
:103EC00086E0DF011D928A95E9F7C1CF2C960FB6E7
:103ED000F894DEBF0FBECDBFDF91CF911F91089543
:103EE000EF92FF920F931F93CF93DF938C01892B57
:103EF00009F46CC0F12CEE24E394E8012196F8015A
:103F00008491843740F4843008F051C0813081F0CE
:103F1000823019F15BC0853709F444C0A8F19CE7F1
:103F2000980F903708F052C08F770E94F61841C062
:103F30000E5F1F4FFE01C49180E28C0F883048F461
:103F4000C7708E2D01C0880FCA95EAF70E94FA212A
:103F500014C08C2F0E94BD172DC00E5F1F4FFE0195
:103F6000C49180E28C0F883058F4C7708E2D01C048
:103F7000880FCA95EAF70E9400220E9423221AC0E5
:103F80008C2F0E94F61816C00E5F1F4FFE01C491C1
:103F9000CC2381F08FE99FE00197F1F700C000008A
:103FA000C150F6CF0E5F1F4FFE01F49003C00E9478
:103FB000BD178E018F2D882309F49FCFEFE9FFE015
:103FC0003197F1F700C000008150F5CFDF91CF911C
:103FD0001F910F91FF90EF90089508950C94ED1F9D
:103FE0000E94EE1F6093DD017093DE018093DF017C
:103FF0009093E0010C94081C08950C94F01F0F930B
:104000001F930091DD011091DE012091DF013091BD
:10401000E001602B712B822B932B1F910F910C943D
:10402000F01F0F931F930091DD011091DE0120918D
:10403000DF013091E00160237123822393231F91DC
:104040000F910C94F01F0F931F930091DD011091BD
:10405000DE012091DF013091E00160277127822786
:1040600093271F910F910C94F01F08950C94352005
:104070000E9436206093D9017093DA018093DB01AE
:104080009093DC010C94081C60E070E0CB010C9470
:1040900038200F931F9341E050E060E070E08A0108
:1040A0009B0104C0000F111F221F331F8A95D2F7F6
:1040B000C901B8011F910F910C9438200F931F93E1
:1040C00041E050E060E070E004C0440F551F661FFF
:1040D000771F8A95D2F78091D9019091DA01A0914A
:1040E000DB01B091DC018A019B01082B192B2A2BE3
:1040F0003B2BC901B8011F910F910C9438200F93ED
:104100001F9341E050E060E070E004C0440F551F91
:10411000661F771F8A95D2F74095509560957095E8
:104120008091D9019091DA01A091DB01B091DC017D
:104130008A019B01082319232A233B23C901B801C3
:104140001F910F910C9438200F931F9341E050E082
:1041500060E070E004C0440F551F661F771F8A950A
:10416000D2F78091D9019091DA01A091DB01B09151
:10417000DC018A019B01082719272A273B27C9014F
:10418000B8011F910F910C9438200F931F93009149
:10419000D9011091DA012091DB013091DC01602B13
:1041A000712B822B932B1F910F910C9438200F931E
:1041B0001F930091D9011091DA012091DB01309118
:1041C000DC0160237123822393231F910F910C94B0
:1041D00038200F931F930091D9011091DA0120919B
:1041E000DB013091DC0160277127822793271F9123
:1041F0000F910C94382008952FE0929F800D112488
:10420000A82FA695A695A695877051E001C0550FD9
:104210008A95EAF785E0A89FD001112420E030E0DC
:1042200070E0F901EA0FFB1FE955FE4F4081CB0119
:10423000022E02C0969587950A94E2F7817099271D
:10424000819584278523842780832F5F3F4F2530E6
:10425000310539F708952FE0929F800D1124682FC2
:10426000669566956695982F977085E0689FB00172
:10427000112440E050E080E0FA01E60FF71FE95515
:10428000FE4F208130E0092E02C0369527950A9412
:10429000E2F721703327042E01C0220F0A94EAF7B7
:1042A000822B4F5F5F4F4530510531F70895BF9224
:1042B000CF92DF92EF92FF920F931F93CF93DF93F2
:1042C0008C01C090DD01D090DE01E090DF01F09024
:1042D000E0018091D9019091DA01A091DB01B091C8
:1042E000DC01C82AD92AEA2AFB2ACFE1D0E0D7018B
:1042F000C6010C2E04C0B695A795979587950A948C
:10430000D2F780FF07C0BC2EB8018C2F0E947F110E
:10431000019719F4219758F7B12C8B2DDF91CF918C
:104320001F910F91FF90EF90DF90CF90BF90089575
:10433000CF93DF93EC010E945721BE010E947F11B1
:10434000DF91CF9108951F93CF93DF93EB0190916D
:104350006E01992321F0CB010E94982113C088237C
:1043600049F0CB010E945721182F682FCE010E94DF
:10437000FC2004C0CB010E942B21182FBE01812FED
:104380000E947F11DF91CF911F9108958091E101EB
:1043900085958595859508958091E10187700895AB
:1043A0009091E101977081E009F480E00895809197
:1043B000ED0108959091ED01892B8093ED01089511
:1043C00080959091ED0189238093ED0108951092DD
:1043D000ED0108959091EC01892B8093EC010895F3
:1043E00080959091EC0189238093EC0108951092BF
:1043F000EC0108959091EB01892B8093EB010895D6
:1044000080959091EB0189238093EB0108951092A0
:10441000EB0108958091E201089508950C940D2216
:104420009091E201981721F08093E2010C940E2202
:1044300008958091E201882329F01092E20180E042
:104440000C940E220895E0910001F09101018091F9
:10445000ED018083E0910001F09101019081809154
:10446000EC01892B8083E0910001F09101019081A2
:104470008091EB01892B80838091E201882381F078
:10448000E0910001F09101019081892B808380915E
:104490000001909101010E944A2381110E9419227A
:1044A00080910001909101010C94021608950C94E2
:1044B000562298E0899F90011124262B2093E10138
:1044C0000E945E208091E1018595859585950C94EB
:1044D00057221092E10180E00C9457222091E101D3
:1044E000809582238093E101982F977079F430E0D2
:1044F000482F082E000C550B2417350739F08595E9
:10450000859585950E947F200C946922089590934B
:1045100041018093400108958295982F9C7C392F0A
:1045200036953695282F237344E0249FC00111242B
:10453000932F982B292F2A7A2695892F8575880FF6
:10454000822B08951F93CF93DF931F92CDB7DEB7D1
:1045500099830E948C22182F9981892F0E948C2286
:10456000212F30E0322F2227A901482BCA010F90BA
:10457000DF91CF911F9108956FEF7FEF80E090E082
:104580000C94A73480E090E00E94833421E08D3EBB
:104590009E4F09F020E0822F089582E090E00C9475
:1045A0007B3483E090E00C947B3484E090E00C94C6
:1045B0007B34682F84E090E00C948934AB01BC011B
:1045C0008FE090E00C949B34AB01BC0183E190E060
:1045D0000C949B3460E070E0CB010C94E42260E02A
:1045E00070E0CB010E94DE220C94EA226DEE7EEF99
:1045F00080E090E00E94A73460E082E090E00E94BA
:10460000893460E083E090E00E9489341092DD01FB
:104610001092DE011092DF011092E00160E084E070
:1046200090E00E94893460E085E090E00E94893447
:1046300060E086E090E00E9489346FEF87E090E0D0
:104640000E94893440E050E0BA0188E090E00E9486
:104650009B3460E08DE090E00E94893440E050E0BF
:10466000BA0188E190E00E949B3460E087E190E02D
:104670000E94893440E050E0BA018CE190E00E9451
:104680009B3460E080E290E00E9489340C94EF2239
:104690000C94F622FC01329697E080E0915029F0CC
:1046A00021912223D9F38F5FF9CF08959C01FC015A
:1046B00032969FEF80E04191461789F09F3F19F4B1
:1046C000411101C0982F8F5F8630A9F79F3F39F0C5
:1046D000F901E90FF11D97FDFA9562830895089598
:1046E000FC01329608962081261301C01082319673
:1046F000E817F907C1F708950C9456230C9470231A
:10470000029626E0FC0111922A95E9F70895089592
:104710000C9487230E94882380911602843049F1EB
:104720001092EF0120E488E190E00FB6F894A8958C
:10473000809360000FBE2093600080E00E945910BB
:104740000E94882383B7817F846083BF83B78160A1
:1047500083BF7894889583B78E7F83BF0FB6F89414
:10476000A89580916000886180936000109260003D
:104770000FBE089508950895CF930E94BA230E9412
:1047800071140E94BB23C0E08C2F0E94D613892B8A
:1047900029F4CF5FC530C1F780E001C081E0CF913F
:1047A000089508950C94D1230E94221C0E94F615AE
:1047B0000E9459100C94D2231F920F920FB60F92A1
:1047C00011248F939F93AF93BF938091EF01811139
:1047D00013C080910C0290910D02A0910E02B09135
:1047E0000F024196A11DB11D80930C0290930D0202
:1047F000A0930E02B0930F02BF91AF919F918F9142
:104800000F900FBE0F901F90189582E084BD93E02B
:1048100095BD9AEF97BD80936E0008952FB7F894D9
:1048200080910C0290910D02A0910E02B0910F02A6
:104830002FBF08952FB7F89460910C0270910D026C
:1048400080910E0290910F022FBF0895CF92DF92B8
:10485000EF92FF920F931F932FB7F89440910C02A1
:1048600050910D0260910E0270910F022FBF6A01EC
:104870007B01EE24FF248C0120E030E0C016D1063D
:10488000E206F30610F4415051099A01281B390B36
:10489000C9011F910F91FF90EF90DF90CF90089585
:1048A00078941F920F920FB60F9211248F939F93BB
:1048B000AF93BF9380910C0290910D02A0910E02D4
:1048C000B0910F020196A11DB11D80930C0290932F
:1048D0000D02A0930E02B0930F02BF91AF919F9172
:1048E0008F910F900FBE0F901F90189581E08093CD
:1048F000E00080E28093D8001092C9008FE19EE42E
:104900000197F1F700C0000087E090EBDC01809395
:104910001F0290932002A0932102B09322029CE0F8
:1049200088E10FB6F894A895809360000FBE90932D
:104930006000FFCF0E94C222811102C00E94482362
:104940000E94CD228093EE010E94D52290E09093A8
:104950001102809310020E94D122682F70E080E043
:1049600090E00C94FD1F8091F30180FF0BC06091DB
:10497000050185E0689FB0011124759567957595CF
:1049800067952BC081FF09C06091050185E0689F94
:10499000B00111247595679520C082FF07C0609112
:1049A000050185E0689FB001112417C09091F201C4
:1049B0009923D1F060910401961788F720910501A1
:1049C00085E0289F90011124929FA001939F500D94
:1049D000112470E0CA010E944D346038710540F422
:1049E0006115710539F002C065E070E0862F089509
:1049F0008FE7089581E008958091F30180FF08C05A
:104A00006091030170E0759567957595679521C074
:104A100081FF06C06091030170E07595679519C02C
:104A200082FF04C06091030170E010C09091F20118
:104A30009923C1F0609102019617A0F780910301BC
:104A4000899FC001112470E00E944D3460387105C7
:104A500028F46115710521F0862F08958FE70895D8
:104A600081E0089561E070E0F4CF803F21F40E947E
:104A7000B324819504C0813F29F40E94B32480931C
:104A8000F7010895823F21F40E94B324819504C068
:104A9000833F29F40E94B3248093F6010895893F4F
:104AA00019F40E94FC2405C08A3F31F40E94FC24C2
:104AB00081958093F80108958B3F21F40E94FC2496
:104AC000819504C08C3F29F40E94FC248093F90155
:104AD0000895843F21F48091F501816017C0853FDE
:104AE00021F48091F501826011C0863F21F480910C
:104AF000F50184600BC0873F21F48091F501886047
:104B000005C0883F31F48091F50180618093F50103
:104B100008958D3F21F48091F30181600BC08E3F99
:104B200021F48091F301826005C08F3F29F48091C8
:104B3000F30184608093F3010895803F39F48091FC
:104B4000F70187FF6CC01092F70169C0813F29F41B
:104B50008091F7011816BCF362C09091F601823F74
:104B600029F497FF5CC01092F60159C0833F19F4F5
:104B70001916CCF354C0893F41F48091F8011816FE
:104B80000CF04DC01092F8014AC08A3F29F4809180
:104B9000F80187FF44C0F6CF8B3F39F48091F901CB
:104BA00087FF3DC01092F9013AC08C3F29F48091F3
:104BB000F9011816BCF333C0843F21F48091F5014C
:104BC0008E7F17C0853F21F48091F5018D7F11C044
:104BD000863F21F48091F5018B7F0BC0873F21F444
:104BE0008091F501877F05C0883F31F48091F50100
:104BF0008F7E8093F50113C08D3F21F48091F301E6
:104C00008E7F0BC08E3F21F48091F3018D7F05C014
:104C10008F3F29F48091F3018B7F8093F301809182
:104C2000F60181110EC08091F70181110AC08091B7
:104C3000F801811106C08091F901811102C0109222
:104C4000F20108958091EE0183FF7EC08FEE93E123
:104C50000E94520F8091F5011F928F938AEE93E18B
:104C60009F938F930E94EB0F88EE93E10E94520F67
:104C70008091F601282F082E000C330B3F938F9361
:104C800085EE93E19F938F930E94EB0F83EE93E168
:104C90000E94520F8091F701282F082E000C330B31
:104CA0003F938F9380EE93E19F938F930E94EB0F3E
:104CB0008EED93E10E94520F8091F801282F082E6B
:104CC000000C330B3F938F938BED93E19F938F9366
:104CD0000E94EB0F89ED93E10E94520F8091F90140
:104CE000282F082E000C330B3F938F9386ED93E112
:104CF0009F938F930E94EB0F83ED93E10E94520FDD
:104D00008091F2011F928F9380ED93E19F938F9397
:104D10000E94EB0F8EEC93E10E94520F8091F30101
:104D20001F928F938BEC93E19F938F930E94EB0FD5
:104D300088EC93E10E94520F8DB79EB74C960FB648
:104D4000F8949EBF0FBE8DBF84EF91E00E944B167A
:104D50000E940E249093F1018093F00108951F9317
:104D6000CF93DF938091F0019091F1010E9426246E
:104D7000AC019091F201992321F02091060130E0DD
:104D800006C0209107018AE0289F90011124421754
:104D9000530708F47BC08091F601C091F701D091D0
:104DA000F8011091F901811107C0C1116BC0D11137
:104DB00069C0111167C06AC09F3F19F09F5F90934F
:104DC000F201181624F40E94B3248093F601809116
:104DD000F60187FF05C00E94B32481958093F601F8
:104DE0001C1624F40E94B3248093F7018091F701EC
:104DF00087FF05C00E94B32481958093F70130910D
:104E0000F6013323E1F02091F7012223C1F045EBB5
:104E10003403C0011124892F990F990B009709F4CD
:104E200081E08093F60135EB2303C0011124892F23
:104E3000990F990B009709F481E08093F7011D16F3
:104E400024F40E94FC248093F8018091F80187FFEC
:104E500005C00E94FC2481958093F801111624F46A
:104E60000E94FC248093F9018091F90187FF05C01D
:104E70000E94FC2481958093F901DF91CF911F91CD
:104E80000C9422269F3F09F099CFA1CFDF91CF91BB
:104E90001F910895E4EFF1E086E0DF011D928A950D
:104EA000E9F71092F2011092F301089582E196E180
:104EB0000E94520F1F9281E08F931F9285E08F9383
:104EC00084EC95E19F938F930E94EB0F0F900F90CE
:104ED0000F900F900F900F9008958330E9F128F410
:104EE000813061F0823009F10895853009F462C0A3
:104EF00008F449C0863009F474C008958091070110
:104F0000262F30E0280F311D2F3F310524F4680F84
:104F10006093070103C08FEF809307018091070121
:104F20001F928F938DEF94E172C080910601262F1E
:104F300030E0280F311D2F3F310524F4680F6093B6
:104F4000060103C08FEF80930601809106011F9236
:104F50008F938BEE94E15BC080910501262F30E0AA
:104F6000280F311D2F3F310524F4680F6093050190
:104F700003C08FEF80930501809105011F928F93ED
:104F800088ED94E144C080910401262F30E0280F81
:104F9000311D2F3F310524F4680F6093040103C0D5
:104FA0008FEF80930401809104011F928F9383EC13
:104FB00094E12DC080910301262F30E0280F311D90
:104FC0002F3F310524F4680F6093030103C08FEF76
:104FD00080930301809103011F928F938AEA94E1E9
:104FE00016C080910201262F30E0280F311D2F3F7F
:104FF000310524F4680F6093020103C08FEF8093A2
:105000000201809102011F928F938FE894E19F9398
:105010008F930E94EB0F0F900F900F900F900895B9
:10502000833081F128F4813059F08230D1F0089535
:10503000853009F449C0B8F1863009F456C00895A6
:1050400080910701681720F4861B8093070102C036
:1050500010920701809107011F928F9380E894E1DD
:1050600054C080910601681720F4861B80930601C6
:1050700002C010920601809106011F928F938EE666
:1050800094E143C080910501681720F4861B80934A
:10509000050102C010920501809105011F928F93B6
:1050A0008BE594E132C080910401681720F4861BDF
:1050B0008093040102C010920401809104011F92A8
:1050C0008F9386E494E121C080910301681720F456
:1050D000861B8093030102C010920301809103019B
:1050E0001F928F938DE294E110C0809102016817A6
:1050F00020F4861B8093020102C01092020180916D
:1051000002011F928F9382E194E19F938F930E94FB
:10511000EB0F0F900F900F900F900895CF93C82F23
:105120001F928F9387E197E19F938F930E94EB0FDC
:1051300081E090E0A0E0B0E0BC01CD0104C0660FCA
:10514000771F881F991FCA95D2F70E94FD1F0F90E5
:105150000F900F900F90CF910C94221CCF938B3116
:1051600009F4D1C108F067C18B3009F48AC108F095
:105170003DC1863009F488C120F4853009F496C118
:1051800044C2873009F4A4C1883009F03EC287E3E5
:105190009CE10E94520F88E89BE10E94520F0E94FE
:1051A000D1221F928F9385E89BE19F938F930E945A
:1051B000EB0F83E89BE10E94520F0E94CD22C82F83
:1051C00080E79BE10E94520F1F92CF938BE69BE1F9
:1051D0009F938F930E94EB0F89E69BE10E94520FF1
:1051E0008FE59BE10E94520F8C2F81701F928F934D
:1051F0008CE59BE19F938F930E94EB0F8AE59BE1E7
:105200000E94520F80E59BE10E94520FC1FB88274C
:1052100080F91F928F938DE49BE19F938F930E945F
:10522000EB0F8BE49BE10E94520F8FE39BE10E9406
:10523000520FC2FB882780F91F928F938CE39BE16A
:105240009F938F930E94EB0F8AE39BE10E94520F82
:1052500081E39BE10E94520FC3FBCC27C0F91F9250
:10526000CF938EE29BE19F938F930E94EB0F8CE292
:105270009BE10E94520F0E94D522C82F88E19BE13A
:105280000E94520F1F92CF9383E19BE19F938F93D4
:105290000E94EB0F81E19BE10E94520F88EF9AE19F
:1052A0000E94520F8C2F81701F928F9385EF9AE18D
:1052B0009F938F930E94EB0F8DB79EB780960FB68A
:1052C000F8949EBF0FBE8DBF83EF9AE10E94520FEC
:1052D0008CED9AE10E94520FC1FB882780F91F9242
:1052E0008F9389ED9AE19F938F930E94EB0F87ED47
:1052F0009AE10E94520F85EC9AE10E94520FC2FB84
:10530000882780F91F928F9382EC9AE19F938F9365
:105310000E94EB0F80EC9AE10E94520F8EEA9AE114
:105320000E94520FC3FB882780F91F928F938BEA4C
:105330009AE19F938F930E94EB0F89EA9AE10E9472
:10534000520F8FE99AE10E94520FC4FB882780F91F
:105350001F928F938CE99AE19F938F930E94EB0F9A
:105360008AE99AE10E94520F88E89AE10E94520F5E
:10537000C5FB882780F91F928F9385E89AE19F9358
:105380008F930E94EB0F83E89AE10E94520F87E609
:105390009AE10E94520FC6FB882780F91F928F93D3
:1053A00084E69AE19F938F930E94EB0F82E69AE145
:1053B0000E94520F8AE59AE10E94520FC7FBCC2748
:1053C000C0F91F92CF9387E59AE19F938F930E9434
:1053D000EB0F85E59AE10E94520F8DB79EB74C9670
:1053E0000FB6F8949EBF0FBE8DBF49C0803109F43F
:1053F000B4C020F48E3009F49AC007C1863109F494
:10540000C7C0893109F001C18CE798E10E94520FB1
:105410008FE598E10E94520F82E298E10E94520FBC
:1054200089EE97E10E94520F83EB97E10E94520FA1
:1054300085E897E18FC08A32E1F060F4873209F4A1
:10544000E0C028F48E3108F4E0C08D51DBC0893211
:1054500069F1DBC0833448F48A3308F0D0C0853367
:1054600009F4CFC0883369F0D0C0833409F4C9C0CF
:10547000CCC086E29CE10E94520F0E944823C1E00A
:10548000C9C082EB98E166C08091EE01817F8E7F7A
:105490008093EE018BE898E10E94520F82E29CE13A
:1054A0000E94520F81E08093FB01E9CF0E94221CF1
:1054B00086E09CE10E94520F9FEF23ED80E3915024
:1054C00020408040E1F700C000000E947624D7CF42
:1054D0008091EE01C82FC095C170C0FB80F9809308
:1054E000EE01CC2329F08AEF9BE10E94520F92C07B
:1054F0008DEE9BE10E94520F8091EE01897F877FA4
:105500008093EE01BCCF9091EE0191FBCC27C0F9C6
:1055100081E0C827892FC0FB81F98093EE01CC235D
:1055200019F080EE9BE129C082ED9BE113C09091C0
:10553000EE0192FBCC27C0F981E0C827892FC0FB80
:1055400082F98093EE01CC2319F083EC9BE115C026
:1055500083EB9BE10E94520F92CF9091EE0193FB5F
:10556000CC27C0F981E0C827892FC0FB83F980933D
:10557000EE01CC2351F087EA9BE10E94520F80910B
:10558000EE0181608093EE0145C08AE99BE1E2CFA4
:1055900087E797E10E94520F0E94F6151F928F93A2
:1055A0008DE597E19F938F930E94EB0F80911201FD
:1055B0001F928F9386E497E19F938F930E94EB0F46
:1055C000809108021F928F9383E397E19F938F93BB
:1055D0000E94EB0F0E941A249F938F937F936F93E7
:1055E0008CE197E19F938F930E94EB0F8DB79EB74D
:1055F00042960FB6F8949EBF0FBE8DBF40CF895321
:1056000001C080E00E948E283ACF88E99BE10E9489
:10561000520FC0E08C2FCF91089580E0089580E074
:1056200008958E518A3030F4E82FF0E0E95DFE4FA6
:105630008081089580E00895CF93C82F8091FB0169
:10564000813059F020F0823009F445C039C10E9400
:10565000D721823209F036C104C00E94D72182329C
:1056600061F48C2F0E940D2B811104C08C2F0E949D
:10567000AE282FC081E090E02CC08C2F0E940F2B11
:10568000811126C0C431E1F070F4CB3081F0C0311B
:10569000D1F40E9456278FE097E10E94520F82E0DA
:1056A0008093FB0115C0C93259F0C83361F48BE80F
:1056B00098E10E94520F83E197E10E94520F08C0C7
:1056C0001092FB0101C18DE097E10E94520FFCC0D6
:1056D00081E08170FBC0C43228F5CE3108F0C1C032
:1056E000CB30A1F1D0F4C73009F0D0C08EE1809367
:1056F000070182E3809306018AE08093050184E13B
:105700008093040188E08093030188E28093020182
:1057100083EB95E10E94520FBCC0C33149F1C43103
:10572000C1F0B4C0CB3409F4A6C028F4C93289F062
:10573000C83361F0ABC0C13509F49BC0C23509F470
:1057400096C0CE3409F0A2C06AE09BC00E945627E2
:10575000A0C08091FA01882319F01092FA0199C033
:1057600080EC95E10E94520F81E08093FB01AEC076
:105770008AE995E10E94520F88E895E10E94520F54
:10578000809107011F928F9385E895E19F938F93F6
:105790000E94EB0F83E895E10E94520F81E795E1AB
:1057A0000E94520F809106011F928F938EE695E121
:1057B0009F938F930E94EB0F8CE695E10E94520F0E
:1057C0008DE595E10E94520F809105011F928F9304
:1057D0008AE595E19F938F930E94EB0F88E595E111
:1057E0000E94520F87E495E10E94520F80910401BC
:1057F0001F928F9384E495E19F938F930E94EB0F08
:1058000082E495E10E94520F8DE295E10E94520FD1
:10581000809103011F928F938AE295E19F938F936A
:105820000E94EB0F88E295E10E94520F81E195E121
:105830000E94520F809102011F928F938EE095E19A
:105840009F938F930E94EB0F8CE095E10E94520F83
:105850008DB79EB748960FB6F8949EBF0FBE8DBF0A
:1058600018C08C2F0E94112B8093FA0112C061E0A6
:1058700003C061E006C06AE08091FA010E946D27D2
:1058800008C08091FA010E94102803C081EB95E1C5
:1058900013C08091FA01882369F01F928F938BEADD
:1058A00095E19F938F930E94EB0F0F900F900F90B5
:1058B0000F9004C088EA95E10E94520F81E006C073
:1058C0001092FB0180E002C080E003CFCF910895E9
:1058D0008091070208959FB7F8941092FE019FBF30
:1058E00090911602943009F057C09091E9009F7092
:1058F0003091EC00232F217030FD20E8922B23E023
:105900002093E9002091EB0020FF43C02091EE009E
:1059100027FF3FC02091FC01222321F02091E800C5
:1059200025FF37C01092FC0126E03091E80035FDDC
:1059300015C030911602343061F53091EB0035FD21
:1059400028C0215021F481E08093FC0122C0EFE9BE
:10595000FFE03197F1F700C00000E7CF8093F1003E
:105960008091E80085FD0AC08091E80080FFFCCFAF
:105970008091E8008E778093E80006C08FB7F89496
:1059800021E02093FE018FBF9F709093E90080E09B
:1059900008959F709093E9008FEF08950F931F93E0
:1059A000CF93DF9300D01F92CDB7DEB78C010E945A
:1059B000892F823011F0843021F584E089831B83A4
:1059C0000A8382E08093E9008FEF9091E800815094
:1059D00095FD06C095ED9A95F1F700008111F5CF80
:1059E0008091E80085FF0DC040E050E063E070E08A
:1059F000CE0101960E94A62F8091E8008E778093B9
:105A0000E8000F900F900F90DF91CF911F910F91B1
:105A10000895CF93DF9300D01F92CDB7DEB72091CA
:105A20001602243031F523E02983805891099B83A5
:105A30008A8382E08093E9008FEF9091E8008150A3
:105A400095FD06C095ED9A95F1F700008111F5CF0F
:105A50008091E80085FF0DC040E050E063E070E019
:105A6000CE0101960E94A62F8091E8008E77809348
:105A7000E8000F900F900F90DF91CF910895CF9392
:105A8000DF93EC010E94892F823011F08430F9F409
:105A900082E08093E9009FEF8091E800915085FDBE
:105AA00006C085ED8A95F1F700009111F5CF809140
:105AB000E80085FF0CC040E050E066E070E0CE01F9
:105AC0000E94A62F8091E8008E778093E800DF91F6
:105AD000CF910895CF93DF93EC010E94892F8230FC
